{
  "contractName": "ERC1155Token",
  "abi": [
    {
      "inputs": [
        {
          "internalType": "string",
          "name": "_contractName",
          "type": "string"
        },
        {
          "internalType": "string",
          "name": "_uri",
          "type": "string"
        },
        {
          "internalType": "string[]",
          "name": "_names",
          "type": "string[]"
        },
        {
          "internalType": "uint256[]",
          "name": "_ids",
          "type": "uint256[]"
        }
      ],
      "stateMutability": "nonpayable",
      "type": "constructor"
    },
    {
      "anonymous": false,
      "inputs": [
        {
          "indexed": true,
          "internalType": "address",
          "name": "account",
          "type": "address"
        },
        {
          "indexed": true,
          "internalType": "address",
          "name": "operator",
          "type": "address"
        },
        {
          "indexed": false,
          "internalType": "bool",
          "name": "approved",
          "type": "bool"
        }
      ],
      "name": "ApprovalForAll",
      "type": "event"
    },
    {
      "anonymous": false,
      "inputs": [
        {
          "indexed": true,
          "internalType": "address",
          "name": "previousOwner",
          "type": "address"
        },
        {
          "indexed": true,
          "internalType": "address",
          "name": "newOwner",
          "type": "address"
        }
      ],
      "name": "OwnershipTransferred",
      "type": "event"
    },
    {
      "anonymous": false,
      "inputs": [
        {
          "indexed": true,
          "internalType": "address",
          "name": "operator",
          "type": "address"
        },
        {
          "indexed": true,
          "internalType": "address",
          "name": "from",
          "type": "address"
        },
        {
          "indexed": true,
          "internalType": "address",
          "name": "to",
          "type": "address"
        },
        {
          "indexed": false,
          "internalType": "uint256[]",
          "name": "ids",
          "type": "uint256[]"
        },
        {
          "indexed": false,
          "internalType": "uint256[]",
          "name": "values",
          "type": "uint256[]"
        }
      ],
      "name": "TransferBatch",
      "type": "event"
    },
    {
      "anonymous": false,
      "inputs": [
        {
          "indexed": true,
          "internalType": "address",
          "name": "operator",
          "type": "address"
        },
        {
          "indexed": true,
          "internalType": "address",
          "name": "from",
          "type": "address"
        },
        {
          "indexed": true,
          "internalType": "address",
          "name": "to",
          "type": "address"
        },
        {
          "indexed": false,
          "internalType": "uint256",
          "name": "id",
          "type": "uint256"
        },
        {
          "indexed": false,
          "internalType": "uint256",
          "name": "value",
          "type": "uint256"
        }
      ],
      "name": "TransferSingle",
      "type": "event"
    },
    {
      "anonymous": false,
      "inputs": [
        {
          "indexed": false,
          "internalType": "string",
          "name": "value",
          "type": "string"
        },
        {
          "indexed": true,
          "internalType": "uint256",
          "name": "id",
          "type": "uint256"
        }
      ],
      "name": "URI",
      "type": "event"
    },
    {
      "inputs": [
        {
          "internalType": "address",
          "name": "account",
          "type": "address"
        },
        {
          "internalType": "uint256",
          "name": "id",
          "type": "uint256"
        }
      ],
      "name": "balanceOf",
      "outputs": [
        {
          "internalType": "uint256",
          "name": "",
          "type": "uint256"
        }
      ],
      "stateMutability": "view",
      "type": "function"
    },
    {
      "inputs": [
        {
          "internalType": "address[]",
          "name": "accounts",
          "type": "address[]"
        },
        {
          "internalType": "uint256[]",
          "name": "ids",
          "type": "uint256[]"
        }
      ],
      "name": "balanceOfBatch",
      "outputs": [
        {
          "internalType": "uint256[]",
          "name": "",
          "type": "uint256[]"
        }
      ],
      "stateMutability": "view",
      "type": "function"
    },
    {
      "inputs": [],
      "name": "baseMetadataURI",
      "outputs": [
        {
          "internalType": "string",
          "name": "",
          "type": "string"
        }
      ],
      "stateMutability": "view",
      "type": "function"
    },
    {
      "inputs": [
        {
          "internalType": "uint256",
          "name": "",
          "type": "uint256"
        }
      ],
      "name": "idToName",
      "outputs": [
        {
          "internalType": "string",
          "name": "",
          "type": "string"
        }
      ],
      "stateMutability": "view",
      "type": "function"
    },
    {
      "inputs": [
        {
          "internalType": "uint256",
          "name": "",
          "type": "uint256"
        }
      ],
      "name": "ids",
      "outputs": [
        {
          "internalType": "uint256",
          "name": "",
          "type": "uint256"
        }
      ],
      "stateMutability": "view",
      "type": "function"
    },
    {
      "inputs": [
        {
          "internalType": "address",
          "name": "account",
          "type": "address"
        },
        {
          "internalType": "address",
          "name": "operator",
          "type": "address"
        }
      ],
      "name": "isApprovedForAll",
      "outputs": [
        {
          "internalType": "bool",
          "name": "",
          "type": "bool"
        }
      ],
      "stateMutability": "view",
      "type": "function"
    },
    {
      "inputs": [],
      "name": "mintFee",
      "outputs": [
        {
          "internalType": "uint256",
          "name": "",
          "type": "uint256"
        }
      ],
      "stateMutability": "view",
      "type": "function"
    },
    {
      "inputs": [],
      "name": "name",
      "outputs": [
        {
          "internalType": "string",
          "name": "",
          "type": "string"
        }
      ],
      "stateMutability": "view",
      "type": "function"
    },
    {
      "inputs": [
        {
          "internalType": "string",
          "name": "",
          "type": "string"
        }
      ],
      "name": "nameToId",
      "outputs": [
        {
          "internalType": "uint256",
          "name": "",
          "type": "uint256"
        }
      ],
      "stateMutability": "view",
      "type": "function"
    },
    {
      "inputs": [
        {
          "internalType": "uint256",
          "name": "",
          "type": "uint256"
        }
      ],
      "name": "names",
      "outputs": [
        {
          "internalType": "string",
          "name": "",
          "type": "string"
        }
      ],
      "stateMutability": "view",
      "type": "function"
    },
    {
      "inputs": [],
      "name": "owner",
      "outputs": [
        {
          "internalType": "address",
          "name": "",
          "type": "address"
        }
      ],
      "stateMutability": "view",
      "type": "function"
    },
    {
      "inputs": [],
      "name": "renounceOwnership",
      "outputs": [],
      "stateMutability": "nonpayable",
      "type": "function"
    },
    {
      "inputs": [
        {
          "internalType": "address",
          "name": "from",
          "type": "address"
        },
        {
          "internalType": "address",
          "name": "to",
          "type": "address"
        },
        {
          "internalType": "uint256[]",
          "name": "ids",
          "type": "uint256[]"
        },
        {
          "internalType": "uint256[]",
          "name": "amounts",
          "type": "uint256[]"
        },
        {
          "internalType": "bytes",
          "name": "data",
          "type": "bytes"
        }
      ],
      "name": "safeBatchTransferFrom",
      "outputs": [],
      "stateMutability": "nonpayable",
      "type": "function"
    },
    {
      "inputs": [
        {
          "internalType": "address",
          "name": "from",
          "type": "address"
        },
        {
          "internalType": "address",
          "name": "to",
          "type": "address"
        },
        {
          "internalType": "uint256",
          "name": "id",
          "type": "uint256"
        },
        {
          "internalType": "uint256",
          "name": "amount",
          "type": "uint256"
        },
        {
          "internalType": "bytes",
          "name": "data",
          "type": "bytes"
        }
      ],
      "name": "safeTransferFrom",
      "outputs": [],
      "stateMutability": "nonpayable",
      "type": "function"
    },
    {
      "inputs": [
        {
          "internalType": "address",
          "name": "operator",
          "type": "address"
        },
        {
          "internalType": "bool",
          "name": "approved",
          "type": "bool"
        }
      ],
      "name": "setApprovalForAll",
      "outputs": [],
      "stateMutability": "nonpayable",
      "type": "function"
    },
    {
      "inputs": [
        {
          "internalType": "bytes4",
          "name": "interfaceId",
          "type": "bytes4"
        }
      ],
      "name": "supportsInterface",
      "outputs": [
        {
          "internalType": "bool",
          "name": "",
          "type": "bool"
        }
      ],
      "stateMutability": "view",
      "type": "function"
    },
    {
      "inputs": [
        {
          "internalType": "address",
          "name": "newOwner",
          "type": "address"
        }
      ],
      "name": "transferOwnership",
      "outputs": [],
      "stateMutability": "nonpayable",
      "type": "function"
    },
    {
      "inputs": [
        {
          "internalType": "uint256",
          "name": "_tokenid",
          "type": "uint256"
        }
      ],
      "name": "uri",
      "outputs": [
        {
          "internalType": "string",
          "name": "",
          "type": "string"
        }
      ],
      "stateMutability": "view",
      "type": "function"
    },
    {
      "inputs": [],
      "name": "getNames",
      "outputs": [
        {
          "internalType": "string[]",
          "name": "",
          "type": "string[]"
        }
      ],
      "stateMutability": "view",
      "type": "function"
    },
    {
      "inputs": [
        {
          "internalType": "string",
          "name": "newUri",
          "type": "string"
        }
      ],
      "name": "setURI",
      "outputs": [],
      "stateMutability": "nonpayable",
      "type": "function"
    },
    {
      "inputs": [
        {
          "internalType": "uint256",
          "name": "_fee",
          "type": "uint256"
        }
      ],
      "name": "setFee",
      "outputs": [],
      "stateMutability": "nonpayable",
      "type": "function"
    },
    {
      "inputs": [
        {
          "internalType": "address",
          "name": "account",
          "type": "address"
        },
        {
          "internalType": "uint256",
          "name": "_id",
          "type": "uint256"
        },
        {
          "internalType": "uint256",
          "name": "amount",
          "type": "uint256"
        }
      ],
      "name": "mint",
      "outputs": [
        {
          "internalType": "uint256",
          "name": "",
          "type": "uint256"
        }
      ],
      "stateMutability": "payable",
      "type": "function"
    },
    {
      "inputs": [
        {
          "internalType": "address",
          "name": "to",
          "type": "address"
        },
        {
          "internalType": "uint256[]",
          "name": "_ids",
          "type": "uint256[]"
        },
        {
          "internalType": "uint256[]",
          "name": "amounts",
          "type": "uint256[]"
        },
        {
          "internalType": "bytes",
          "name": "data",
          "type": "bytes"
        }
      ],
      "name": "mintBatch",
      "outputs": [],
      "stateMutability": "nonpayable",
      "type": "function"
    }
  ],
  "bytecode": "0x608060405260006008553480156200001657600080fd5b5060405162004c6f38038062004c6f83398181016040528101906200003c919062000af5565b826200004e816200010f60201b60201c565b506200006f620000636200012b60201b60201c565b6200013360201b60201c565b816004908051906020019062000087929190620004dc565b508060059080519060200190620000a092919062000543565b50620000b1620001f960201b60201c565b620000c283620002fa60201b60201c565b8260069080519060200190620000da92919062000595565b508360079080519060200190620000f392919062000595565b5062000105326200039d60201b60201c565b5050505062000ed1565b80600290805190602001906200012792919062000595565b5050565b600033905090565b6000600360009054906101000a900473ffffffffffffffffffffffffffffffffffffffff16905081600360006101000a81548173ffffffffffffffffffffffffffffffffffffffff021916908373ffffffffffffffffffffffffffffffffffffffff1602179055508173ffffffffffffffffffffffffffffffffffffffff168173ffffffffffffffffffffffffffffffffffffffff167f8be0079c531659141344cd1fd0a4f28419497f9722a3daafe3b4186f6b6457e060405160405180910390a35050565b60005b600580549050811015620002f7576005818154811062000221576200022062000be3565b5b906000526020600020015460096004838154811062000245576200024462000be3565b5b906000526020600020016040516200025e919062000d21565b9081526020016040518091039020819055506004818154811062000287576200028662000be3565b5b90600052602060002001600a600060058481548110620002ac57620002ab62000be3565b5b90600052602060002001548152602001908152602001600020908054620002d39062000c41565b620002e092919062000626565b508080620002ee9062000d69565b915050620001fc565b50565b6200030a6200012b60201b60201c565b73ffffffffffffffffffffffffffffffffffffffff1662000330620004b260201b60201c565b73ffffffffffffffffffffffffffffffffffffffff161462000389576040517f08c379a0000000000000000000000000000000000000000000000000000000008152600401620003809062000e17565b60405180910390fd5b6200039a816200010f60201b60201c565b50565b620003ad6200012b60201b60201c565b73ffffffffffffffffffffffffffffffffffffffff16620003d3620004b260201b60201c565b73ffffffffffffffffffffffffffffffffffffffff16146200042c576040517f08c379a0000000000000000000000000000000000000000000000000000000008152600401620004239062000e17565b60405180910390fd5b600073ffffffffffffffffffffffffffffffffffffffff168173ffffffffffffffffffffffffffffffffffffffff16036200049e576040517f08c379a0000000000000000000000000000000000000000000000000000000008152600401620004959062000eaf565b60405180910390fd5b620004af816200013360201b60201c565b50565b6000600360009054906101000a900473ffffffffffffffffffffffffffffffffffffffff16905090565b82805482825590600052602060002090810192821562000530579160200282015b828111156200052f5782518290805190602001906200051e92919062000595565b5091602001919060010190620004fd565b5b5090506200053f9190620006be565b5090565b82805482825590600052602060002090810192821562000582579160200282015b828111156200058157825182559160200191906001019062000564565b5b509050620005919190620006e6565b5090565b828054620005a39062000c41565b90600052602060002090601f016020900481019282620005c7576000855562000613565b82601f10620005e257805160ff191683800117855562000613565b8280016001018555821562000613579182015b8281111562000612578251825591602001919060010190620005f5565b5b509050620006229190620006e6565b5090565b828054620006349062000c41565b90600052602060002090601f016020900481019282620006585760008555620006ab565b82601f106200066b5780548555620006ab565b82800160010185558215620006ab57600052602060002091601f016020900482015b82811115620006aa5782548255916001019190600101906200068d565b5b509050620006ba9190620006e6565b5090565b5b80821115620006e25760008181620006d8919062000705565b50600101620006bf565b5090565b5b8082111562000701576000816000905550600101620006e7565b5090565b508054620007139062000c41565b6000825580601f1062000727575062000748565b601f016020900490600052602060002090810190620007479190620006e6565b5b50565b6000604051905090565b600080fd5b600080fd5b600080fd5b600080fd5b6000601f19601f8301169050919050565b7f4e487b7100000000000000000000000000000000000000000000000000000000600052604160045260246000fd5b620007b48262000769565b810181811067ffffffffffffffff82111715620007d657620007d56200077a565b5b80604052505050565b6000620007eb6200074b565b9050620007f98282620007a9565b919050565b600067ffffffffffffffff8211156200081c576200081b6200077a565b5b620008278262000769565b9050602081019050919050565b60005b838110156200085457808201518184015260208101905062000837565b8381111562000864576000848401525b50505050565b6000620008816200087b84620007fe565b620007df565b905082815260208101848484011115620008a0576200089f62000764565b5b620008ad84828562000834565b509392505050565b600082601f830112620008cd57620008cc6200075f565b5b8151620008df8482602086016200086a565b91505092915050565b600067ffffffffffffffff8211156200090657620009056200077a565b5b602082029050602081019050919050565b600080fd5b6000620009336200092d84620008e8565b620007df565b9050808382526020820190506020840283018581111562000959576200095862000917565b5b835b81811015620009a757805167ffffffffffffffff8111156200098257620009816200075f565b5b808601620009918982620008b5565b855260208501945050506020810190506200095b565b5050509392505050565b600082601f830112620009c957620009c86200075f565b5b8151620009db8482602086016200091c565b91505092915050565b600067ffffffffffffffff82111562000a025762000a016200077a565b5b602082029050602081019050919050565b6000819050919050565b62000a288162000a13565b811462000a3457600080fd5b50565b60008151905062000a488162000a1d565b92915050565b600062000a6562000a5f84620009e4565b620007df565b9050808382526020820190506020840283018581111562000a8b5762000a8a62000917565b5b835b8181101562000ab8578062000aa3888262000a37565b84526020840193505060208101905062000a8d565b5050509392505050565b600082601f83011262000ada5762000ad96200075f565b5b815162000aec84826020860162000a4e565b91505092915050565b6000806000806080858703121562000b125762000b1162000755565b5b600085015167ffffffffffffffff81111562000b335762000b326200075a565b5b62000b4187828801620008b5565b945050602085015167ffffffffffffffff81111562000b655762000b646200075a565b5b62000b7387828801620008b5565b935050604085015167ffffffffffffffff81111562000b975762000b966200075a565b5b62000ba587828801620009b1565b925050606085015167ffffffffffffffff81111562000bc95762000bc86200075a565b5b62000bd78782880162000ac2565b91505092959194509250565b7f4e487b7100000000000000000000000000000000000000000000000000000000600052603260045260246000fd5b7f4e487b7100000000000000000000000000000000000000000000000000000000600052602260045260246000fd5b6000600282049050600182168062000c5a57607f821691505b60208210810362000c705762000c6f62000c12565b5b50919050565b600081905092915050565b60008190508160005260206000209050919050565b6000815462000ca58162000c41565b62000cb1818662000c76565b9450600182166000811462000ccf576001811462000ce15762000d18565b60ff1983168652818601935062000d18565b62000cec8562000c81565b60005b8381101562000d105781548189015260018201915060208101905062000cef565b838801955050505b50505092915050565b600062000d2f828462000c96565b915081905092915050565b7f4e487b7100000000000000000000000000000000000000000000000000000000600052601160045260246000fd5b600062000d768262000a13565b91507fffffffffffffffffffffffffffffffffffffffffffffffffffffffffffffffff820362000dab5762000daa62000d3a565b5b600182019050919050565b600082825260208201905092915050565b7f4f776e61626c653a2063616c6c6572206973206e6f7420746865206f776e6572600082015250565b600062000dff60208362000db6565b915062000e0c8262000dc7565b602082019050919050565b6000602082019050818103600083015262000e328162000df0565b9050919050565b7f4f776e61626c653a206e6577206f776e657220697320746865207a65726f206160008201527f6464726573730000000000000000000000000000000000000000000000000000602082015250565b600062000e9760268362000db6565b915062000ea48262000e39565b604082019050919050565b6000602082019050818103600083015262000eca8162000e88565b9050919050565b613d8e8062000ee16000396000f3fe60806040526004361061013f5760003560e01c80634e1273f4116100b6578063cd838f0f1161006f578063cd838f0f14610472578063e985e9c51461049d578063f242432a146104da578063f2fde38b14610503578063f6d8f2cb1461052c578063fac333ac146105695761013f565b80634e1273f4146103765780635b2bd79e146103b357806369fe0e2d146103de578063715018a6146104075780638da5cb5b1461041e578063a22cb465146104495761013f565b806313966db51161010857806313966db51461024f578063156e29f61461027a5780631f7fdffa146102aa5780632eb2c2d6146102d3578063364410b3146102fc5780634622ab03146103395761013f565b8062fdd58e1461014457806301ffc9a71461018157806302fe5305146101be57806306fdde03146101e75780630e89341c14610212575b600080fd5b34801561015057600080fd5b5061016b6004803603810190610166919061247c565b6105a6565b60405161017891906124cb565b60405180910390f35b34801561018d57600080fd5b506101a860048036038101906101a3919061253e565b61066e565b6040516101b59190612586565b60405180910390f35b3480156101ca57600080fd5b506101e560048036038101906101e091906126e7565b610750565b005b3480156101f357600080fd5b506101fc6107d8565b60405161020991906127b8565b60405180910390f35b34801561021e57600080fd5b50610239600480360381019061023491906127da565b610866565b60405161024691906127b8565b60405180910390f35b34801561025b57600080fd5b5061026461089a565b60405161027191906124cb565b60405180910390f35b610294600480360381019061028f9190612807565b6108a0565b6040516102a191906124cb565b60405180910390f35b3480156102b657600080fd5b506102d160048036038101906102cc91906129c3565b6108d5565b005b3480156102df57600080fd5b506102fa60048036038101906102f59190612a7e565b6108e7565b005b34801561030857600080fd5b50610323600480360381019061031e91906127da565b610988565b60405161033091906127b8565b60405180910390f35b34801561034557600080fd5b50610360600480360381019061035b91906127da565b610a28565b60405161036d91906127b8565b60405180910390f35b34801561038257600080fd5b5061039d60048036038101906103989190612c10565b610ad4565b6040516103aa9190612d46565b60405180910390f35b3480156103bf57600080fd5b506103c8610bed565b6040516103d591906127b8565b60405180910390f35b3480156103ea57600080fd5b50610405600480360381019061040091906127da565b610c7b565b005b34801561041357600080fd5b5061041c610d01565b005b34801561042a57600080fd5b50610433610d89565b6040516104409190612d77565b60405180910390f35b34801561045557600080fd5b50610470600480360381019061046b9190612dbe565b610db3565b005b34801561047e57600080fd5b50610487610dc9565b6040516104949190612f0a565b60405180910390f35b3480156104a957600080fd5b506104c460048036038101906104bf9190612f2c565b610ea2565b6040516104d19190612586565b60405180910390f35b3480156104e657600080fd5b5061050160048036038101906104fc9190612f6c565b610f36565b005b34801561050f57600080fd5b5061052a60048036038101906105259190613003565b610fd7565b005b34801561053857600080fd5b50610553600480360381019061054e91906126e7565b6110ce565b60405161056091906124cb565b60405180910390f35b34801561057557600080fd5b50610590600480360381019061058b91906127da565b6110fc565b60405161059d91906124cb565b60405180910390f35b60008073ffffffffffffffffffffffffffffffffffffffff168373ffffffffffffffffffffffffffffffffffffffff1603610616576040517f08c379a000000000000000000000000000000000000000000000000000000000815260040161060d906130a2565b60405180910390fd5b60008083815260200190815260200160002060008473ffffffffffffffffffffffffffffffffffffffff1673ffffffffffffffffffffffffffffffffffffffff16815260200190815260200160002054905092915050565b60007fd9b67a26000000000000000000000000000000000000000000000000000000007bffffffffffffffffffffffffffffffffffffffffffffffffffffffff1916827bffffffffffffffffffffffffffffffffffffffffffffffffffffffff1916148061073957507f0e89341c000000000000000000000000000000000000000000000000000000007bffffffffffffffffffffffffffffffffffffffffffffffffffffffff1916827bffffffffffffffffffffffffffffffffffffffffffffffffffffffff1916145b80610749575061074882611120565b5b9050919050565b61075861118a565b73ffffffffffffffffffffffffffffffffffffffff16610776610d89565b73ffffffffffffffffffffffffffffffffffffffff16146107cc576040517f08c379a00000000000000000000000000000000000000000000000000000000081526004016107c39061310e565b60405180910390fd5b6107d581611192565b50565b600780546107e59061315d565b80601f01602080910402602001604051908101604052809291908181526020018280546108119061315d565b801561085e5780601f106108335761010080835404028352916020019161085e565b820191906000526020600020905b81548152906001019060200180831161084157829003601f168201915b505050505081565b60606006610873836111ac565b6040516020016108849291906132aa565b6040516020818303038152906040529050919050565b60085481565b600060085434146108b057600080fd5b6108cb8484846040518060200160405280600081525061130c565b8290509392505050565b6108e1848484846114bc565b50505050565b6108ef61118a565b73ffffffffffffffffffffffffffffffffffffffff168573ffffffffffffffffffffffffffffffffffffffff16148061093557506109348561092f61118a565b610ea2565b5b610974576040517f08c379a000000000000000000000000000000000000000000000000000000000815260040161096b9061334b565b60405180910390fd5b61098185858585856116e8565b5050505050565b600a60205280600052604060002060009150905080546109a79061315d565b80601f01602080910402602001604051908101604052809291908181526020018280546109d39061315d565b8015610a205780601f106109f557610100808354040283529160200191610a20565b820191906000526020600020905b815481529060010190602001808311610a0357829003601f168201915b505050505081565b60048181548110610a3857600080fd5b906000526020600020016000915090508054610a539061315d565b80601f0160208091040260200160405190810160405280929190818152602001828054610a7f9061315d565b8015610acc5780601f10610aa157610100808354040283529160200191610acc565b820191906000526020600020905b815481529060010190602001808311610aaf57829003601f168201915b505050505081565b60608151835114610b1a576040517f08c379a0000000000000000000000000000000000000000000000000000000008152600401610b11906133dd565b60405180910390fd5b6000835167ffffffffffffffff811115610b3757610b366125bc565b5b604051908082528060200260200182016040528015610b655781602001602082028036833780820191505090505b50905060005b8451811015610be257610bb2858281518110610b8a57610b896133fd565b5b6020026020010151858381518110610ba557610ba46133fd565b5b60200260200101516105a6565b828281518110610bc557610bc46133fd565b5b60200260200101818152505080610bdb9061345b565b9050610b6b565b508091505092915050565b60068054610bfa9061315d565b80601f0160208091040260200160405190810160405280929190818152602001828054610c269061315d565b8015610c735780601f10610c4857610100808354040283529160200191610c73565b820191906000526020600020905b815481529060010190602001808311610c5657829003601f168201915b505050505081565b610c8361118a565b73ffffffffffffffffffffffffffffffffffffffff16610ca1610d89565b73ffffffffffffffffffffffffffffffffffffffff1614610cf7576040517f08c379a0000000000000000000000000000000000000000000000000000000008152600401610cee9061310e565b60405180910390fd5b8060088190555050565b610d0961118a565b73ffffffffffffffffffffffffffffffffffffffff16610d27610d89565b73ffffffffffffffffffffffffffffffffffffffff1614610d7d576040517f08c379a0000000000000000000000000000000000000000000000000000000008152600401610d749061310e565b60405180910390fd5b610d876000611a09565b565b6000600360009054906101000a900473ffffffffffffffffffffffffffffffffffffffff16905090565b610dc5610dbe61118a565b8383611acf565b5050565b60606004805480602002602001604051908101604052809291908181526020016000905b82821015610e99578382906000526020600020018054610e0c9061315d565b80601f0160208091040260200160405190810160405280929190818152602001828054610e389061315d565b8015610e855780601f10610e5a57610100808354040283529160200191610e85565b820191906000526020600020905b815481529060010190602001808311610e6857829003601f168201915b505050505081526020019060010190610ded565b50505050905090565b6000600160008473ffffffffffffffffffffffffffffffffffffffff1673ffffffffffffffffffffffffffffffffffffffff16815260200190815260200160002060008373ffffffffffffffffffffffffffffffffffffffff1673ffffffffffffffffffffffffffffffffffffffff16815260200190815260200160002060009054906101000a900460ff16905092915050565b610f3e61118a565b73ffffffffffffffffffffffffffffffffffffffff168573ffffffffffffffffffffffffffffffffffffffff161480610f845750610f8385610f7e61118a565b610ea2565b5b610fc3576040517f08c379a0000000000000000000000000000000000000000000000000000000008152600401610fba90613515565b60405180910390fd5b610fd08585858585611c3b565b5050505050565b610fdf61118a565b73ffffffffffffffffffffffffffffffffffffffff16610ffd610d89565b73ffffffffffffffffffffffffffffffffffffffff1614611053576040517f08c379a000000000000000000000000000000000000000000000000000000000815260040161104a9061310e565b60405180910390fd5b600073ffffffffffffffffffffffffffffffffffffffff168173ffffffffffffffffffffffffffffffffffffffff16036110c2576040517f08c379a00000000000000000000000000000000000000000000000000000000081526004016110b9906135a7565b60405180910390fd5b6110cb81611a09565b50565b6009818051602081018201805184825260208301602085012081835280955050505050506000915090505481565b6005818154811061110c57600080fd5b906000526020600020016000915090505481565b60007f01ffc9a7000000000000000000000000000000000000000000000000000000007bffffffffffffffffffffffffffffffffffffffffffffffffffffffff1916827bffffffffffffffffffffffffffffffffffffffffffffffffffffffff1916149050919050565b600033905090565b80600290805190602001906111a8929190612331565b5050565b6060600082036111f3576040518060400160405280600181526020017f30000000000000000000000000000000000000000000000000000000000000008152509050611307565b600082905060005b6000821461122557808061120e9061345b565b915050600a8261121e91906135f6565b91506111fb565b60008167ffffffffffffffff811115611241576112406125bc565b5b6040519080825280601f01601f1916602001820160405280156112735781602001600182028036833780820191505090505b5090505b600085146113005760018261128c9190613627565b9150600a8561129b919061365b565b60306112a7919061368c565b60f81b8183815181106112bd576112bc6133fd565b5b60200101907effffffffffffffffffffffffffffffffffffffffffffffffffffffffffffff1916908160001a905350600a856112f991906135f6565b9450611277565b8093505050505b919050565b600073ffffffffffffffffffffffffffffffffffffffff168473ffffffffffffffffffffffffffffffffffffffff160361137b576040517f08c379a000000000000000000000000000000000000000000000000000000000815260040161137290613754565b60405180910390fd5b600061138561118a565b9050600061139285611ed6565b9050600061139f85611ed6565b90506113b083600089858589611f50565b8460008088815260200190815260200160002060008973ffffffffffffffffffffffffffffffffffffffff1673ffffffffffffffffffffffffffffffffffffffff168152602001908152602001600020600082825461140f919061368c565b925050819055508673ffffffffffffffffffffffffffffffffffffffff16600073ffffffffffffffffffffffffffffffffffffffff168473ffffffffffffffffffffffffffffffffffffffff167fc3d58168c5ae7397731d063d5bbf3d657854427343f4c083240f7aacaa2d0f62898960405161148d929190613774565b60405180910390a46114a483600089858589611f58565b6114b383600089898989611f60565b50505050505050565b600073ffffffffffffffffffffffffffffffffffffffff168473ffffffffffffffffffffffffffffffffffffffff160361152b576040517f08c379a000000000000000000000000000000000000000000000000000000000815260040161152290613754565b60405180910390fd5b815183511461156f576040517f08c379a00000000000000000000000000000000000000000000000000000000081526004016115669061380f565b60405180910390fd5b600061157961118a565b905061158a81600087878787611f50565b60005b8451811015611643578381815181106115a9576115a86133fd565b5b60200260200101516000808784815181106115c7576115c66133fd565b5b6020026020010151815260200190815260200160002060008873ffffffffffffffffffffffffffffffffffffffff1673ffffffffffffffffffffffffffffffffffffffff1681526020019081526020016000206000828254611629919061368c565b92505081905550808061163b9061345b565b91505061158d565b508473ffffffffffffffffffffffffffffffffffffffff16600073ffffffffffffffffffffffffffffffffffffffff168273ffffffffffffffffffffffffffffffffffffffff167f4a39dc06d4c0dbc64b70af90fd698a233a518aa5d07e595d983b8c0526c8f7fb87876040516116bb92919061382f565b60405180910390a46116d281600087878787611f58565b6116e181600087878787612137565b5050505050565b815183511461172c576040517f08c379a00000000000000000000000000000000000000000000000000000000081526004016117239061380f565b60405180910390fd5b600073ffffffffffffffffffffffffffffffffffffffff168473ffffffffffffffffffffffffffffffffffffffff160361179b576040517f08c379a0000000000000000000000000000000000000000000000000000000008152600401611792906138d8565b60405180910390fd5b60006117a561118a565b90506117b5818787878787611f50565b60005b84518110156119665760008582815181106117d6576117d56133fd565b5b6020026020010151905060008583815181106117f5576117f46133fd565b5b60200260200101519050600080600084815260200190815260200160002060008b73ffffffffffffffffffffffffffffffffffffffff1673ffffffffffffffffffffffffffffffffffffffff16815260200190815260200160002054905081811015611896576040517f08c379a000000000000000000000000000000000000000000000000000000000815260040161188d9061396a565b60405180910390fd5b81810360008085815260200190815260200160002060008c73ffffffffffffffffffffffffffffffffffffffff1673ffffffffffffffffffffffffffffffffffffffff168152602001908152602001600020819055508160008085815260200190815260200160002060008b73ffffffffffffffffffffffffffffffffffffffff1673ffffffffffffffffffffffffffffffffffffffff168152602001908152602001600020600082825461194b919061368c565b925050819055505050508061195f9061345b565b90506117b8565b508473ffffffffffffffffffffffffffffffffffffffff168673ffffffffffffffffffffffffffffffffffffffff168273ffffffffffffffffffffffffffffffffffffffff167f4a39dc06d4c0dbc64b70af90fd698a233a518aa5d07e595d983b8c0526c8f7fb87876040516119dd92919061382f565b60405180910390a46119f3818787878787611f58565b611a01818787878787612137565b505050505050565b6000600360009054906101000a900473ffffffffffffffffffffffffffffffffffffffff16905081600360006101000a81548173ffffffffffffffffffffffffffffffffffffffff021916908373ffffffffffffffffffffffffffffffffffffffff1602179055508173ffffffffffffffffffffffffffffffffffffffff168173ffffffffffffffffffffffffffffffffffffffff167f8be0079c531659141344cd1fd0a4f28419497f9722a3daafe3b4186f6b6457e060405160405180910390a35050565b8173ffffffffffffffffffffffffffffffffffffffff168373ffffffffffffffffffffffffffffffffffffffff1603611b3d576040517f08c379a0000000000000000000000000000000000000000000000000000000008152600401611b34906139fc565b60405180910390fd5b80600160008573ffffffffffffffffffffffffffffffffffffffff1673ffffffffffffffffffffffffffffffffffffffff16815260200190815260200160002060008473ffffffffffffffffffffffffffffffffffffffff1673ffffffffffffffffffffffffffffffffffffffff16815260200190815260200160002060006101000a81548160ff0219169083151502179055508173ffffffffffffffffffffffffffffffffffffffff168373ffffffffffffffffffffffffffffffffffffffff167f17307eab39ab6107e8899845ad3d59bd9653f200f220920489ca2b5937696c3183604051611c2e9190612586565b60405180910390a3505050565b600073ffffffffffffffffffffffffffffffffffffffff168473ffffffffffffffffffffffffffffffffffffffff1603611caa576040517f08c379a0000000000000000000000000000000000000000000000000000000008152600401611ca1906138d8565b60405180910390fd5b6000611cb461118a565b90506000611cc185611ed6565b90506000611cce85611ed6565b9050611cde838989858589611f50565b600080600088815260200190815260200160002060008a73ffffffffffffffffffffffffffffffffffffffff1673ffffffffffffffffffffffffffffffffffffffff16815260200190815260200160002054905085811015611d75576040517f08c379a0000000000000000000000000000000000000000000000000000000008152600401611d6c9061396a565b60405180910390fd5b85810360008089815260200190815260200160002060008b73ffffffffffffffffffffffffffffffffffffffff1673ffffffffffffffffffffffffffffffffffffffff168152602001908152602001600020819055508560008089815260200190815260200160002060008a73ffffffffffffffffffffffffffffffffffffffff1673ffffffffffffffffffffffffffffffffffffffff1681526020019081526020016000206000828254611e2a919061368c565b925050819055508773ffffffffffffffffffffffffffffffffffffffff168973ffffffffffffffffffffffffffffffffffffffff168573ffffffffffffffffffffffffffffffffffffffff167fc3d58168c5ae7397731d063d5bbf3d657854427343f4c083240f7aacaa2d0f628a8a604051611ea7929190613774565b60405180910390a4611ebd848a8a86868a611f58565b611ecb848a8a8a8a8a611f60565b505050505050505050565b60606000600167ffffffffffffffff811115611ef557611ef46125bc565b5b604051908082528060200260200182016040528015611f235781602001602082028036833780820191505090505b5090508281600081518110611f3b57611f3a6133fd565b5b60200260200101818152505080915050919050565b505050505050565b505050505050565b611f7f8473ffffffffffffffffffffffffffffffffffffffff1661230e565b1561212f578373ffffffffffffffffffffffffffffffffffffffff1663f23a6e6187878686866040518663ffffffff1660e01b8152600401611fc5959493929190613a71565b6020604051808303816000875af192505050801561200157506040513d601f19601f82011682018060405250810190611ffe9190613ae0565b60015b6120a65761200d613b1a565b806308c379a0036120695750612021613b3c565b8061202c575061206b565b806040517f08c379a000000000000000000000000000000000000000000000000000000000815260040161206091906127b8565b60405180910390fd5b505b6040517f08c379a000000000000000000000000000000000000000000000000000000000815260040161209d90613c3e565b60405180910390fd5b63f23a6e6160e01b7bffffffffffffffffffffffffffffffffffffffffffffffffffffffff1916817bffffffffffffffffffffffffffffffffffffffffffffffffffffffff19161461212d576040517f08c379a000000000000000000000000000000000000000000000000000000000815260040161212490613cd0565b60405180910390fd5b505b505050505050565b6121568473ffffffffffffffffffffffffffffffffffffffff1661230e565b15612306578373ffffffffffffffffffffffffffffffffffffffff1663bc197c8187878686866040518663ffffffff1660e01b815260040161219c959493929190613cf0565b6020604051808303816000875af19250505080156121d857506040513d601f19601f820116820180604052508101906121d59190613ae0565b60015b61227d576121e4613b1a565b806308c379a00361224057506121f8613b3c565b806122035750612242565b806040517f08c379a000000000000000000000000000000000000000000000000000000000815260040161223791906127b8565b60405180910390fd5b505b6040517f08c379a000000000000000000000000000000000000000000000000000000000815260040161227490613c3e565b60405180910390fd5b63bc197c8160e01b7bffffffffffffffffffffffffffffffffffffffffffffffffffffffff1916817bffffffffffffffffffffffffffffffffffffffffffffffffffffffff191614612304576040517f08c379a00000000000000000000000000000000000000000000000000000000081526004016122fb90613cd0565b60405180910390fd5b505b505050505050565b6000808273ffffffffffffffffffffffffffffffffffffffff163b119050919050565b82805461233d9061315d565b90600052602060002090601f01602090048101928261235f57600085556123a6565b82601f1061237857805160ff19168380011785556123a6565b828001600101855582156123a6579182015b828111156123a557825182559160200191906001019061238a565b5b5090506123b391906123b7565b5090565b5b808211156123d05760008160009055506001016123b8565b5090565b6000604051905090565b600080fd5b600080fd5b600073ffffffffffffffffffffffffffffffffffffffff82169050919050565b6000612413826123e8565b9050919050565b61242381612408565b811461242e57600080fd5b50565b6000813590506124408161241a565b92915050565b6000819050919050565b61245981612446565b811461246457600080fd5b50565b60008135905061247681612450565b92915050565b60008060408385031215612493576124926123de565b5b60006124a185828601612431565b92505060206124b285828601612467565b9150509250929050565b6124c581612446565b82525050565b60006020820190506124e060008301846124bc565b92915050565b60007fffffffff0000000000000000000000000000000000000000000000000000000082169050919050565b61251b816124e6565b811461252657600080fd5b50565b60008135905061253881612512565b92915050565b600060208284031215612554576125536123de565b5b600061256284828501612529565b91505092915050565b60008115159050919050565b6125808161256b565b82525050565b600060208201905061259b6000830184612577565b92915050565b600080fd5b600080fd5b6000601f19601f8301169050919050565b7f4e487b7100000000000000000000000000000000000000000000000000000000600052604160045260246000fd5b6125f4826125ab565b810181811067ffffffffffffffff82111715612613576126126125bc565b5b80604052505050565b60006126266123d4565b905061263282826125eb565b919050565b600067ffffffffffffffff821115612652576126516125bc565b5b61265b826125ab565b9050602081019050919050565b82818337600083830152505050565b600061268a61268584612637565b61261c565b9050828152602081018484840111156126a6576126a56125a6565b5b6126b1848285612668565b509392505050565b600082601f8301126126ce576126cd6125a1565b5b81356126de848260208601612677565b91505092915050565b6000602082840312156126fd576126fc6123de565b5b600082013567ffffffffffffffff81111561271b5761271a6123e3565b5b612727848285016126b9565b91505092915050565b600081519050919050565b600082825260208201905092915050565b60005b8381101561276a57808201518184015260208101905061274f565b83811115612779576000848401525b50505050565b600061278a82612730565b612794818561273b565b93506127a481856020860161274c565b6127ad816125ab565b840191505092915050565b600060208201905081810360008301526127d2818461277f565b905092915050565b6000602082840312156127f0576127ef6123de565b5b60006127fe84828501612467565b91505092915050565b6000806000606084860312156128205761281f6123de565b5b600061282e86828701612431565b935050602061283f86828701612467565b925050604061285086828701612467565b9150509250925092565b600067ffffffffffffffff821115612875576128746125bc565b5b602082029050602081019050919050565b600080fd5b600061289e6128998461285a565b61261c565b905080838252602082019050602084028301858111156128c1576128c0612886565b5b835b818110156128ea57806128d68882612467565b8452602084019350506020810190506128c3565b5050509392505050565b600082601f830112612909576129086125a1565b5b813561291984826020860161288b565b91505092915050565b600067ffffffffffffffff82111561293d5761293c6125bc565b5b612946826125ab565b9050602081019050919050565b600061296661296184612922565b61261c565b905082815260208101848484011115612982576129816125a6565b5b61298d848285612668565b509392505050565b600082601f8301126129aa576129a96125a1565b5b81356129ba848260208601612953565b91505092915050565b600080600080608085870312156129dd576129dc6123de565b5b60006129eb87828801612431565b945050602085013567ffffffffffffffff811115612a0c57612a0b6123e3565b5b612a18878288016128f4565b935050604085013567ffffffffffffffff811115612a3957612a386123e3565b5b612a45878288016128f4565b925050606085013567ffffffffffffffff811115612a6657612a656123e3565b5b612a7287828801612995565b91505092959194509250565b600080600080600060a08688031215612a9a57612a996123de565b5b6000612aa888828901612431565b9550506020612ab988828901612431565b945050604086013567ffffffffffffffff811115612ada57612ad96123e3565b5b612ae6888289016128f4565b935050606086013567ffffffffffffffff811115612b0757612b066123e3565b5b612b13888289016128f4565b925050608086013567ffffffffffffffff811115612b3457612b336123e3565b5b612b4088828901612995565b9150509295509295909350565b600067ffffffffffffffff821115612b6857612b676125bc565b5b602082029050602081019050919050565b6000612b8c612b8784612b4d565b61261c565b90508083825260208201905060208402830185811115612baf57612bae612886565b5b835b81811015612bd85780612bc48882612431565b845260208401935050602081019050612bb1565b5050509392505050565b600082601f830112612bf757612bf66125a1565b5b8135612c07848260208601612b79565b91505092915050565b60008060408385031215612c2757612c266123de565b5b600083013567ffffffffffffffff811115612c4557612c446123e3565b5b612c5185828601612be2565b925050602083013567ffffffffffffffff811115612c7257612c716123e3565b5b612c7e858286016128f4565b9150509250929050565b600081519050919050565b600082825260208201905092915050565b6000819050602082019050919050565b612cbd81612446565b82525050565b6000612ccf8383612cb4565b60208301905092915050565b6000602082019050919050565b6000612cf382612c88565b612cfd8185612c93565b9350612d0883612ca4565b8060005b83811015612d39578151612d208882612cc3565b9750612d2b83612cdb565b925050600181019050612d0c565b5085935050505092915050565b60006020820190508181036000830152612d608184612ce8565b905092915050565b612d7181612408565b82525050565b6000602082019050612d8c6000830184612d68565b92915050565b612d9b8161256b565b8114612da657600080fd5b50565b600081359050612db881612d92565b92915050565b60008060408385031215612dd557612dd46123de565b5b6000612de385828601612431565b9250506020612df485828601612da9565b9150509250929050565b600081519050919050565b600082825260208201905092915050565b6000819050602082019050919050565b600082825260208201905092915050565b6000612e4682612730565b612e508185612e2a565b9350612e6081856020860161274c565b612e69816125ab565b840191505092915050565b6000612e808383612e3b565b905092915050565b6000602082019050919050565b6000612ea082612dfe565b612eaa8185612e09565b935083602082028501612ebc85612e1a565b8060005b85811015612ef85784840389528151612ed98582612e74565b9450612ee483612e88565b925060208a01995050600181019050612ec0565b50829750879550505050505092915050565b60006020820190508181036000830152612f248184612e95565b905092915050565b60008060408385031215612f4357612f426123de565b5b6000612f5185828601612431565b9250506020612f6285828601612431565b9150509250929050565b600080600080600060a08688031215612f8857612f876123de565b5b6000612f9688828901612431565b9550506020612fa788828901612431565b9450506040612fb888828901612467565b9350506060612fc988828901612467565b925050608086013567ffffffffffffffff811115612fea57612fe96123e3565b5b612ff688828901612995565b9150509295509295909350565b600060208284031215613019576130186123de565b5b600061302784828501612431565b91505092915050565b7f455243313135353a2062616c616e636520717565727920666f7220746865207a60008201527f65726f2061646472657373000000000000000000000000000000000000000000602082015250565b600061308c602b8361273b565b915061309782613030565b604082019050919050565b600060208201905081810360008301526130bb8161307f565b9050919050565b7f4f776e61626c653a2063616c6c6572206973206e6f7420746865206f776e6572600082015250565b60006130f860208361273b565b9150613103826130c2565b602082019050919050565b60006020820190508181036000830152613127816130eb565b9050919050565b7f4e487b7100000000000000000000000000000000000000000000000000000000600052602260045260246000fd5b6000600282049050600182168061317557607f821691505b6020821081036131885761318761312e565b5b50919050565b600081905092915050565b60008190508160005260206000209050919050565b600081546131bb8161315d565b6131c5818661318e565b945060018216600081146131e057600181146131f157613224565b60ff19831686528186019350613224565b6131fa85613199565b60005b8381101561321c578154818901526001820191506020810190506131fd565b838801955050505b50505092915050565b600061323882612730565b613242818561318e565b935061325281856020860161274c565b80840191505092915050565b7f2e6a736f6e000000000000000000000000000000000000000000000000000000600082015250565b600061329460058361318e565b915061329f8261325e565b600582019050919050565b60006132b682856131ae565b91506132c2828461322d565b91506132cd82613287565b91508190509392505050565b7f455243313135353a207472616e736665722063616c6c6572206973206e6f742060008201527f6f776e6572206e6f7220617070726f7665640000000000000000000000000000602082015250565b600061333560328361273b565b9150613340826132d9565b604082019050919050565b6000602082019050818103600083015261336481613328565b9050919050565b7f455243313135353a206163636f756e747320616e6420696473206c656e67746860008201527f206d69736d617463680000000000000000000000000000000000000000000000602082015250565b60006133c760298361273b565b91506133d28261336b565b604082019050919050565b600060208201905081810360008301526133f6816133ba565b9050919050565b7f4e487b7100000000000000000000000000000000000000000000000000000000600052603260045260246000fd5b7f4e487b7100000000000000000000000000000000000000000000000000000000600052601160045260246000fd5b600061346682612446565b91507fffffffffffffffffffffffffffffffffffffffffffffffffffffffffffffffff82036134985761349761342c565b5b600182019050919050565b7f455243313135353a2063616c6c6572206973206e6f74206f776e6572206e6f7260008201527f20617070726f7665640000000000000000000000000000000000000000000000602082015250565b60006134ff60298361273b565b915061350a826134a3565b604082019050919050565b6000602082019050818103600083015261352e816134f2565b9050919050565b7f4f776e61626c653a206e6577206f776e657220697320746865207a65726f206160008201527f6464726573730000000000000000000000000000000000000000000000000000602082015250565b600061359160268361273b565b915061359c82613535565b604082019050919050565b600060208201905081810360008301526135c081613584565b9050919050565b7f4e487b7100000000000000000000000000000000000000000000000000000000600052601260045260246000fd5b600061360182612446565b915061360c83612446565b92508261361c5761361b6135c7565b5b828204905092915050565b600061363282612446565b915061363d83612446565b9250828210156136505761364f61342c565b5b828203905092915050565b600061366682612446565b915061367183612446565b925082613681576136806135c7565b5b828206905092915050565b600061369782612446565b91506136a283612446565b9250827fffffffffffffffffffffffffffffffffffffffffffffffffffffffffffffffff038211156136d7576136d661342c565b5b828201905092915050565b7f455243313135353a206d696e7420746f20746865207a65726f2061646472657360008201527f7300000000000000000000000000000000000000000000000000000000000000602082015250565b600061373e60218361273b565b9150613749826136e2565b604082019050919050565b6000602082019050818103600083015261376d81613731565b9050919050565b600060408201905061378960008301856124bc565b61379660208301846124bc565b9392505050565b7f455243313135353a2069647320616e6420616d6f756e7473206c656e6774682060008201527f6d69736d61746368000000000000000000000000000000000000000000000000602082015250565b60006137f960288361273b565b91506138048261379d565b604082019050919050565b60006020820190508181036000830152613828816137ec565b9050919050565b600060408201905081810360008301526138498185612ce8565b9050818103602083015261385d8184612ce8565b90509392505050565b7f455243313135353a207472616e7366657220746f20746865207a65726f20616460008201527f6472657373000000000000000000000000000000000000000000000000000000602082015250565b60006138c260258361273b565b91506138cd82613866565b604082019050919050565b600060208201905081810360008301526138f1816138b5565b9050919050565b7f455243313135353a20696e73756666696369656e742062616c616e636520666f60008201527f72207472616e7366657200000000000000000000000000000000000000000000602082015250565b6000613954602a8361273b565b915061395f826138f8565b604082019050919050565b6000602082019050818103600083015261398381613947565b9050919050565b7f455243313135353a2073657474696e6720617070726f76616c2073746174757360008201527f20666f722073656c660000000000000000000000000000000000000000000000602082015250565b60006139e660298361273b565b91506139f18261398a565b604082019050919050565b60006020820190508181036000830152613a15816139d9565b9050919050565b600081519050919050565b600082825260208201905092915050565b6000613a4382613a1c565b613a4d8185613a27565b9350613a5d81856020860161274c565b613a66816125ab565b840191505092915050565b600060a082019050613a866000830188612d68565b613a936020830187612d68565b613aa060408301866124bc565b613aad60608301856124bc565b8181036080830152613abf8184613a38565b90509695505050505050565b600081519050613ada81612512565b92915050565b600060208284031215613af657613af56123de565b5b6000613b0484828501613acb565b91505092915050565b60008160e01c9050919050565b600060033d1115613b395760046000803e613b36600051613b0d565b90505b90565b600060443d10613bc957613b4e6123d4565b60043d036004823e80513d602482011167ffffffffffffffff82111715613b76575050613bc9565b808201805167ffffffffffffffff811115613b945750505050613bc9565b80602083010160043d038501811115613bb1575050505050613bc9565b613bc0826020018501866125eb565b82955050505050505b90565b7f455243313135353a207472616e7366657220746f206e6f6e204552433131353560008201527f526563656976657220696d706c656d656e746572000000000000000000000000602082015250565b6000613c2860348361273b565b9150613c3382613bcc565b604082019050919050565b60006020820190508181036000830152613c5781613c1b565b9050919050565b7f455243313135353a204552433131353552656365697665722072656a6563746560008201527f6420746f6b656e73000000000000000000000000000000000000000000000000602082015250565b6000613cba60288361273b565b9150613cc582613c5e565b604082019050919050565b60006020820190508181036000830152613ce981613cad565b9050919050565b600060a082019050613d056000830188612d68565b613d126020830187612d68565b8181036040830152613d248186612ce8565b90508181036060830152613d388185612ce8565b90508181036080830152613d4c8184613a38565b9050969550505050505056fea26469706673582212206ee5c66bc51482f0d755d54f4d4200e7de52bb9fc79da4a176a4d3eca28d762b64736f6c634300080e0033",
  "immutableReferences": {},
  "source": "// SPDX-License-Identifier: MIT\npragma solidity ^0.8.13;\n\nimport \"@openzeppelin/contracts/token/ERC1155/ERC1155.sol\";\nimport \"@openzeppelin/contracts/access/Ownable.sol\";\nimport \"@openzeppelin/contracts/utils/Strings.sol\";\n\ncontract ERC1155Token is ERC1155, Ownable {\n    string[] public names; //string array of names\n    uint256[] public ids; //uint array of ids\n    string public baseMetadataURI; //the token metadata URI\n    string public name; //the token mame\n    uint256 public mintFee = 0 wei; //mintfee, 0 by default. only used in mint function, not batch.\n\n    mapping(string => uint256) public nameToId; //name to id mapping\n    mapping(uint256 => string) public idToName; //id to name mapping\n\n    /*\n    constructor is executed when the factory contract calls its own deployERC1155 method\n    */\n    constructor(\n        string memory _contractName,\n        string memory _uri,\n        string[] memory _names,\n        uint256[] memory _ids\n    ) ERC1155(_uri) {\n        names = _names;\n        ids = _ids;\n        createMapping();\n        setURI(_uri);\n        baseMetadataURI = _uri;\n        name = _contractName;\n        transferOwnership(tx.origin);\n    }\n\n    /*\n    creates a mapping of strings to ids (i.e [\"one\",\"two\"], [1,2] - \"one\" maps to 1, vice versa.)\n    */\n    function createMapping() private {\n        for (uint256 id = 0; id < ids.length; id++) {\n            nameToId[names[id]] = ids[id];\n            idToName[ids[id]] = names[id];\n        }\n    }\n\n    /*\n    sets our URI and makes the ERC1155 OpenSea compatible\n    */\n    function uri(uint256 _tokenid)\n        public\n        view\n        override\n        returns (string memory)\n    {\n        return\n            string(\n                abi.encodePacked(\n                    baseMetadataURI,\n                    Strings.toString(_tokenid),\n                    \".json\"\n                )\n            );\n    }\n\n    function getNames() public view returns (string[] memory) {\n        return names;\n    }\n\n    /*\n    used to change metadata, only owner access\n    */\n    function setURI(string memory newUri) public onlyOwner {\n        _setURI(newUri);\n    }\n\n    /*\n    set a mint fee. only used for mint, not batch.\n    */\n    function setFee(uint256 _fee) public onlyOwner {\n        mintFee = _fee;\n    }\n\n    /*\n    mint(address account, uint _id, uint256 amount)\n\n    account - address to mint the token to\n    _id - the ID being minted\n    amount - amount of tokens to mint\n    */\n    function mint(\n        address account,\n        uint256 _id,\n        uint256 amount\n    ) public payable returns (uint256) {\n        require(msg.value == mintFee);\n        _mint(account, _id, amount, \"\");\n        return _id;\n    }\n\n    /*\n    mintBatch(address to, uint256[] memory _ids, uint256[] memory amounts, bytes memory data)\n\n    to - address to mint the token to\n    _ids - the IDs being minted\n    amounts - amount of tokens to mint given ID\n    bytes - additional field to pass data to function\n    */\n    function mintBatch(\n        address to,\n        uint256[] memory _ids,\n        uint256[] memory amounts,\n        bytes memory data\n    ) public {\n        _mintBatch(to, _ids, amounts, data);\n    }\n}\n",
  "sourcePath": "C:\\Users\\afsha\\development\\blockchain\\ethereum-dev\\packages\\erc-1155-nfts\\contracts\\NFT_ERC1155.sol",
  "compiler": {
    "name": "solc",
    "version": "0.8.14+commit.80d49f37.Emscripten.clang"
  },
  "schemaVersion": "3.4.7",
  "updatedAt": "2022-05-23T02:00:29.560Z",
  "devdoc": {
    "kind": "dev",
    "methods": {
      "balanceOf(address,uint256)": {
        "details": "See {IERC1155-balanceOf}. Requirements: - `account` cannot be the zero address."
      },
      "balanceOfBatch(address[],uint256[])": {
        "details": "See {IERC1155-balanceOfBatch}. Requirements: - `accounts` and `ids` must have the same length."
      },
      "isApprovedForAll(address,address)": {
        "details": "See {IERC1155-isApprovedForAll}."
      },
      "owner()": {
        "details": "Returns the address of the current owner."
      },
      "renounceOwnership()": {
        "details": "Leaves the contract without owner. It will not be possible to call `onlyOwner` functions anymore. Can only be called by the current owner. NOTE: Renouncing ownership will leave the contract without an owner, thereby removing any functionality that is only available to the owner."
      },
      "safeBatchTransferFrom(address,address,uint256[],uint256[],bytes)": {
        "details": "See {IERC1155-safeBatchTransferFrom}."
      },
      "safeTransferFrom(address,address,uint256,uint256,bytes)": {
        "details": "See {IERC1155-safeTransferFrom}."
      },
      "setApprovalForAll(address,bool)": {
        "details": "See {IERC1155-setApprovalForAll}."
      },
      "supportsInterface(bytes4)": {
        "details": "See {IERC165-supportsInterface}."
      },
      "transferOwnership(address)": {
        "details": "Transfers ownership of the contract to a new account (`newOwner`). Can only be called by the current owner."
      }
    },
    "version": 1
  },
  "userdoc": {
    "kind": "user",
    "methods": {},
    "version": 1
  }
}